:040000008A11112828
:10000800FE00030E83120313A2000408A3000A08CB
:10001800A4007F08A5008A118E2E8A111328F901E1
:10002800FA01FB01FC01FD0183134E3084005C30B2
:100038008A11A62783018A111B2F831203134408F0
:10004800CA004508CB004608CC0003104B0D4C0DE8
:10005800CD004D0883160313A2008312031347082B
:10006800CA004808CB004908CC0003104B0D4C0DC2
:10007800CD004D0883160313A10022080319542844
:100088002108220203185C282203FF3A2107831261
:100098000313CA0019304A02031C5C288316031391
:1000A80083124708C4004808C5004908C60008006C
:1000B80083160313210803190800220821020318D4
:1000C8006F282103FF3A220783120313CA0019304D
:1000D8004A020318080006308312CA004A08831629
:1000E8000313A00083120313C61F7D28831603136E
:1000F800A0178312C91F832883160313201783129E
:10010800C517FF30C405FF30C5050030C605C81740
:10011800FF30C705FF30C8050030C9058316031333
:10012800210822020318C628013003108312031382
:10013800C70DC80DC90DFF3E031D99280130831650
:100148000313A102210822060319C1280130A002C5
:10015800200807390319C128982801300310831291
:100168000313C60CC50CC40CFF3E031DB228013096
:10017800CA004A0883160313A20722082106031996
:10018800F728B128220821020318F72801300310A4
:1001980083120313C40DC50DC60DFF3E031DCB28E6
:1001A800013083160313A202210822060319F3283B
:1001B8000130A002200807390319F328CA280130A2
:1001C800031083120313C90CC80CC70CFF3E031D90
:1001D800E4280130CA004A0883160313A10722083D
:1001E8002106031DE328A01F0B29FF3083120313E8
:1001F800C406FF30C506FF30C6060130C40700300C
:1002080003180130C507003003180130C6078316EC
:100218000313201F2129FF3083120313C706FF3061
:10022800C806FF30C9060130C7070030031801307F
:10023800C807003003180130C90783160313A0014B
:10024800831203134408C707450803110318450A16
:10025800031DC807460803110318460A031DC907EA
:10026800C91F4A29FF30C706FF30C806FF30C90634
:100278000130C707003003180130C80700300318E1
:100288000130C90783160313A001A00A8312470887
:10029800A6004808A7004908A800831603132208E7
:1002A80083120313CA004A08A900831603132008FF
:1002B80083120313CB004B08AA008A115724831218
:1002C80003132608C4002708C5002808C60008002C
:1002D80083120313500983160313A3008312031315
:1002E800510983160313A400A30A0319A40A83124D
:1002F8000313670883160313230783120313E50008
:1003080068080318680A8316031324078312031363
:10031800E600580983160313A3008312031359092F
:1003280083160313A400A30A0319A40A8312031350
:10033800650883160313230783120313D80066087E
:100348000318660A83160313240783120313D900BC
:1003580065085A07DA0066080318660A5B07DB00B7
:10036800650886005F08B4006008B5006108B6003B
:100378006608AF01AF076508AE01AE078A11F72618
:100388008A11831203132E08B7002F08B80030080B
:10039800B9008A1186228A11831203133408E200F5
:1003A8003508E3003608E4006208C4006308C500A5
:1003B8006408C60083160313250883120313B400C8
:1003C80083160313260883120313B5008316031339
:1003D800270883120313B6005908AF01AF0758085E
:1003E800AE01AE078A11F7268A11831203132E086D
:1003F800B7002F08B8003008B9008A1186228A1180
:10040800831203133408C7003508C8003608C9002A
:100418008A1121208A11831203134408E200450837
:10042800E3004608E4006208C4006308C5006408E5
:10043800C6005C08B4005D08B5005E08B6005B083D
:10044800AF01AF075A08AE01AE078A11F7268A1125
:10045800831203132E08B7002F08B8003008B9001C
:100468008A1186228A11831203133408C7003508BB
:10047800C8003608C9008A1121208A118312031383
:100488004408E2004508E3004608E4000030A600FE
:100498007F30A7004330A8006208A9006308AA00BB
:1004A8006408AB008A1193258A110318602AFF306B
:1004B8008312031395000800831203136208A60031
:1004C8006308A7006408A8000030A9000030AA004B
:1004D8000030AB008A1193258A110318772A8312FA
:1004E800031395010800831203136208A60063082A
:1004F800A7006408A8008A1158238312031326084A
:1005080095000800831203133408BA003508BB00AD
:100518003608BC0003103B0D3C0DBD003D08BE0075
:10052800BE08031D9E2A0030B4000030B50000301C
:10053800B60008003708BA003808BB003908BC0004
:1005480003103B0D3C0DBD003D08C300C308031D4F
:10055800B42A0030B4000030B5000030B6000800FE
:1005680043087B3EBA003A08BE073408BA0035088B
:10057800BB003608BC0010300310BC0CBB0CBA0C16
:10058800FF3E031DC02A3A08BD003D08C3003708D6
:10059800BA003808BB003908BC0010300310BC0C86
:1005A800BB0CBA0CFF3E031DD22A3A08BD003D0819
:1005B800C3068030BA003A08C305B517B817FF302C
:1005C800B705FF30B8050030B9050030BF0000306E
:1005D800C0000030C1000730BA003A08C200341C1D
:1005E800032B3708BF07380803110318380A031DFF
:1005F800C007390803110318390A031DC107013060
:100608000310B60CB50CB40CFF3E031D042B0130CF
:100618000310B70DB80DB90DFF3E031D0C2B0130AB
:10062800C202031DF32A0930BA003A08C200341C7A
:100638002B2B3708BF07380803110318380A031D86
:10064800C007390803110318390A031DC10701300F
:100658000310B60CB50CB40CFF3E031D2C2B013057
:100668000310C10CC00CBF0CFF3E031D342B01301E
:10067800C202031D1B2B3F08A6004008A700410823
:10068800A8003E08BA003A08A9004308BB003B0886
:10069800AA008A115724831203132608B4002708D6
:1006A800B5002808B6000800831203132608AA001C
:1006B8002708AB002808AC0003102B0D2C0DAD004B
:1006C8002D08B300B308031D722B0030A9000030B9
:1006D800A8000030A7000030A60008002608AA00DD
:1006E8002708AB002808AC0017300310AC0CAB0C83
:1006F800AA0CFF3E031D792B2A08AD002D08AE0079
:10070800A717FF30A605FF30A7050030A805260863
:10071800AF002708B0002808B100B2018E30B3023C
:10072800B31FB42B3308803A8F3E0318A42B003034
:10073800A9000030A8000030A7000030A60008007B
:1007480001300310B20CB10CB00CAF0CFF3E031D0E
:10075800A52B0130AA002A08B3070319CF2BA42B15
:1007680018303302031CCC2B0030A9000030A8003D
:100778000030A7000030A60008000130AA000310CE
:10078800AF0DB00DB10DB20DAA0BC32B0130B302E2
:10079800B308031DC12B2E080319DD2BAF09B009BF
:1007A800B109B209AF0A0319B00A0319B10A03194A
:1007B800B20A3208A9003108A8003008A7002F089B
:1007C800A6000800831203135009C4005109C5008C
:1007D800C40A0319C50A67084407E500680803182E
:1007E800680A4507E600650886005F08B4006008E7
:1007F800B5006108B6006608AF01AF076508AE012D
:10080800AE078A11F7268A11831203132E08B70040
:100818002F08B8003008B9008A1186228A1183127D
:1008280003133408E2003508E3003608E40000301A
:10083800A6007F30A7004330A8006208A90063081B
:10084800AA006408AB008A1193258A110318312C79
:10085800FF30831203139500080083120313620804
:10086800A6006308A7006408A8000030A9000030AB
:10087800AA000030AB008A1193258A110318482C6E
:100888008312031395010800831203136208A6005C
:100898006308A7006408A8008A1158238312031369
:1008A8002608950008008312031329080319612CF0
:1008B800280827042604031D742C0030A6000030E5
:1008C800A7000030A80008000130AB002B08A907DA
:1008D80001300310A80CA70CA60CFF3E031D6D2CBD
:1008E800FE30280503198F2C682C0130AB002B082B
:1008F800A9070130A607003003180130A707003008
:1009080003180130A80701300310A80CA70CA60C87
:10091800FF3E031D882CFF30280503199E2C792CD7
:100928000130A90201300310A60DA70DA80DFF3E46
:10093800031D972CA71F942C2918A82CFF30A60557
:100948007F30A705FF30A8050310A90C2908AB00C4
:10095800AC01AD0110300310AB0DAC0DAD0DFF3E79
:10096800031DAF2C2B08A6042C08A7042D08A804E7
:100978002A0803190800A817080083120313670838
:100988009500831203135708803AFF0080307F02D6
:10099800031DD02C643056020318D92C8A118B27DA
:1009A8008A118A116C218A11C52C83120313D6016E
:1009B800D7016708013EE70068080318013E003EBA
:1009C800E800BE30670668040319F12CC52C8A11AB
:1009D8008B278A118A116C218A11831203135708F5
:1009E800803AFF0097307F02031DFC2C70305602BE
:1009F800031CEB2C83120313D601D70183120313B4
:100A08005708803AFF0080307F02031D0D2D6430A7
:100A180056020318162D8A118B278A118A116C2108
:100A28008A11022D83120313D601D7016708FF3EEE
:100A3800E70068080318013EFF3EE8008C305006C6
:100A48005104031D022D8A11CC26080083120313BA
:100A580067089500831203135708803AFF00803017
:100A68007F02031D392D643056020318422D8A1166
:100A78008B278A118A11E6238A112E2D83120313DC
:100A8800D601D7016708013EE70068080318013E50
:100A9800003EE800BE306706680403195A2D2E2D63
:100AA8008A118B278A118A11E6238A11831203136C
:100AB8005708803AFF0097307F02031D652D70307C
:100AC8005602031C542D83120313D601D701831237
:100AD80003135708803AFF0080307F02031D762DEC
:100AE8006430560203187F2D8A118B278A118A11C8
:100AF800E6238A116B2D83120313D601D7016708E9
:100B0800FF3EE70068080318013EFF3EE8008C300E
:100B180067066804031D6B2D8A11CC260800831212
:100B28000313A81FBC2D0030AC000030AD0080308E
:100B3800AE002609AF002709B0002809B100AF0AA6
:100B48000319B00A0319B10A2F08AC0730080318B3
:100B5800300FAF2DB02DAD0731080318310FB52D6B
:100B6800B62DAE072C08A6002D08A7002E08A80051
:100B7800AB1FE32D0030AC000030AD008030AE007C
:100B88002909AF002A09B0002B09B100AF0A0319DF
:100B9800B00A0319B10A2F08AC0730080318300F40
:100BA800D62DD72DAD0731080318310FDC2DDD2DDB
:100BB800AE072C08A9002D08AA002E08AB0080302B
:100BC800A8068030AB062B082802031D08002A0857
:100BD8002702031D0800290826020800F601F11F54
:100BE800FC2DF009F109F00A0319F10AF601F60AD9
:100BF800F31F072EF209F309F20A0319F30A013069
:100C0800F4007408F606F701F80171087004031976
:100C18003E2EF501F50AF11B1D2E01300310F00DD3
:100C2800F10DFF3E031D122E0130F4007408F50784
:100C38000F2E01300310F70DF80DFF3E031D1E2E79
:100C480071087302031D2A2E70087202031C332ECA
:100C58007008F2027108031CF303F30277140130E1
:100C68000310F10CF00CFF3E031D342E0130F50289
:100C7800031D1D2E76080319462EF709F809F70AF1
:100C88000319F80A7808F101F1077708F001F0076D
:100C980008008312031386010130870095013F3055
:100CA8008316031385008601F8308700FB01FC01D9
:100CB800FD01003083120313E2000030E30000302E
:100CC800E400CE01CF01D001D101F901FA01D4012C
:100CD800D501A530E7000030E800D201D301E501D5
:100CE800E601D801D901DA01DB010030DF0020304C
:100CF800E0004130E1000030DC000030DD003F3032
:100D0800DE00003083160313A5000030A6003E3035
:100D1800A70008001E084E07A0004F0803184F0A36
:100D2800A1002008CE002108CF007908013EF90073
:100D38007A080318013E003EFA00403079067A042A
:100D4800031DBF2E4030F0000030F1004F08F301C2
:100D5800F3074E08F201F2078A11F2258A11710889
:100D680083120313D101D1077008D001D007F9010C
:100D7800FA01CE01CF010C131F152508FF00240826
:100D88008A0023088400220E8300FE0E7E0E0900CE
:100D980083120313950187148030500651040319F8
:100DA800EB2ED02E8312031386018A117B278A111A
:100DB800FF308312031386008A117B278A117B0870
:100DC800013EFB007C080318013E003EFC007C0845
:100DD800803AFF0080307F02031DF42E0A307B0228
:100DE80003180800D62E83120313B301AF1F032F75
:100DF800AE09AF09AE0A0319AF0AB301B30A2E0848
:100E0800A6002F08A700A8018E30B1003108A9005C
:100E18003308B2003208AA008A1157248312031338
:100E28002608AE002708AF002808B00008008A117D
:100E380061278A118A114D268A118A113E278A1143
:100E480083120313051E242F051A282F8A119A27A7
:100E58008A1183120313071A871E352F8A112A2530
:100E68008A1183120313071E871A242F8A11C1249B
:100E78008A11242F831203135508803AFF0080300B
:100E88007F02031D492F0430540203185D2F8A1175
:100E9800E6238A1183120313871D3E2F8719522FC9
:100EA8005408013ED40055080318013E003ED50001
:100EB8003E2F8312031395010800831203130C13AA
:100EC800831603130C170B178B175D309F0089309F
:100ED800831203139F001F15FF308316031392001C
:100EE80004308312031392000C30970008000D3071
:100EF80083120313A800AF30A700C130A600A60BC9
:100F0800832FA70B832FA80B832F000008008312C1
:100F18000313071F0800071B8F2F5608013ED60032
:100F280057080318013E003ED70008000830831216
:100F38000313A700C930A600A60BA02FA70BA02F4C
:100F4800A52F080064008001840A040603190034F0
:040F58000406A72FB5
:04400E00A2FFBCFF52
:00000001FF
